:020000040800F2
:1000000000400420D91A0008291B0008291B0008F9
:10001000291B0008291B0008291B0008291B0008B0
:10002000000000000000000000000000291B000884
:10003000291B000800000000291B000835040008E7
:10004000291B0008291B0008291B0008291B000880
:10005000291B0008291B0008291B0008291B000870
:10006000291B0008291B0008291B0008291B000860
:10007000291B0008291B0008291B0008291B000850
:10008000291B0008291B0008291B0008291B000840
:10009000291B0008291B0008291B0008291B000830
:1000A000291B0008291B0008291B0008291B000820
:1000B000291B0008291B0008291B0008291B000810
:1000C000291B0008291B0008291B0008291B000800
:1000D000291B0008291B0008291B0008291B0008F0
:1000E000291B0008291B0008291B0008291B0008E0
:1000F000291B0008291B0008291B0008291B0008D0
:10010000291B0008291B0008291B0008291B0008BF
:10011000291B0008291B0008291B0008291B0008AF
:10012000291B0008291B0008291B0008F9070008E3
:10013000291B0008291B0008291B0008291B00088F
:10014000291B0008291B0008291B0008291B00087F
:10015000291B0008291B0008291B0008291B00086F
:100160000000000000000000291B0008291B0008F7
:10017000291B0008291B0008291B0008291B00084F
:10018000291B0008291B0008291B0008000000008B
:1001900000000000291B0008000000000000000013
:1001A0000000000000000000291B0008291B0008B7
:1001B000291B0008291B0008291B0008291B00080F
:1001C000291B0008291B0008000000000000000097
:1001D000000000000000000000000000291B0008D3
:1001E000291B0008291B0008000000000000000077
:1001F000291B0008291B0008291B0008000000001B
:1002000000000000291B0008291B0008291B00080A
:10021000291B0008291B0008291B0008291B0008AE
:10022000291B00080000000000000000291B000836
:10023000291B000800000000000000000000000072
:10024000000000000000000000000000291B000862
:04025000291B00085E
:1002540010B5054C237833B9044B13B10448AFF3FC
:1002640000800123237010BD18000020000000004E
:100274002C1B000808B5034B1BB103490348AFF31B
:10028400008008BD000000001C0000202C1B00089A
:10029400034613F8012B002AFBD1181A01387047C2
:1002A40002440346934200D1704703F8011BF9E767
:1002B40070B50D4D00260D4C641BA410A64209D147
:1002C4000B4D00260B4C01F02FFC641BA410A6421E
:1002D40005D170BD55F8043B01369847EEE755F853
:1002E400043B01369847F2E7E81B0008E81B0008C6
:1002F400E81B0008F01B000870477047024B13B15D
:10030400024800F005B8704700000000210300080F
:10031400002301461A46184600F014B838B5074DB4
:10032400074C641BA4101CB9BDE8384001F002BCA2
:10033400013C55F824309847F5E700BFF01B00084E
:10034400F41B00082DE9F047DFF878A0064698462C
:100354000F46DAF800009146FFF7CEFF174B1C68F2
:100364000CB9174C1C606568DAF800001F2D05DD18
:10037400FFF7C3FF4FF0FF30BDE8F087AEB104EBE9
:1003840085010122022EC1F8889002FA05F2D4F800
:10039400883143EA0203C4F88831C1F8088102BFF6
:1003A400D4F88C311343C4F88C316B1C0235636070
:1003B40044F82570FFF7A1FF0020DDE73800002096
:1003C4003C0000200000002080B584B000AF01F0A4
:1003D400C1FA0023FB60012001F0D6FA01F02CFBE6
:1003E400104B1B68104AA2FB03239B09BB60BB682C
:1003F40003F00103002B0CBF01230023FB71BA6837
:10040400FB689A4204D0BB68FB60084801F04AFBD1
:10041400FB79184600F0E2FBFB79184601F0F4FA88
:10042400DCE700BFCC010020D34D6210441B000860
:1004340080B400AF044B1B680133034A136000BF50
:10044400BD465DF8047B7047CC01002080B483B0C6
:1004540000AF354BD3F88830334A43F47003C2F805
:100464008830324B01221A60304B0022DA612F4B64
:1004740000221A622D4B1A682C492D4B13400B6035
:100484002A4B00229A62294B0022DA62274B00226F
:100494001A63264B274A5A63244B00229A63234B40
:1004A400244ADA63214B00221A64204B214A5A64FD
:1004B4001E4B00229A641D4B1B681C4A23F48023A4
:1004C40013601A4B00221A65174B4FF000629A60B2
:1004D400194B9B6903F060437B607B68B3F1604F09
:1004E40003D07B68B3F1404F17D1134BDB6903F0A2
:1004F4000103002B05D0104B104ADA600E4B104A52
:10050400DA600D4BDB690C4A43F00203D3610A4BFA
:10051400DB69094A43F00103D36100BF0C37BD46D0
:100524005DF8047B704700BF00ED00E0000C02445E
:10053400E3EAE2EA80020101002002403B2A1908B2
:100544007F6E5D4C80B485B000AF78607B681A68BC
:100554007B685B68D31A013BFB60FB68002B04DA01
:100564007B689A68FB681344FB60FB681846143781
:10057400BD465DF8047B704780B483B000AF7860FB
:100584007B689B685A1E7B681A6100BF0C37BD46A6
:100594005DF8047B704780B584B000AFF860B96043
:1005A4007A60FB6800225A60FB685A68FB681A602C
:1005B400FB687A689A60FB68BA68DA60F868FFF7E3
:1005C400DBFF00BF1037BD4680BD80B483B000AFF1
:1005D40078607B685B6801337A689268B3FBF2F1F8
:1005E40001FB02F29A1A7B681B689A420CBF012332
:1005F4000023DBB218460C37BD465DF8047B704718
:1006040080B483B000AF78607B685A687B681B68ED
:100614009A420CBF01230023DBB218460C37BD46B7
:100624005DF8047B704780B584B000AF78600B46FA
:10063400FB707868FFF7C9FF0346002B01D0002345
:1006440022E07B68DA687B685B681344FA781A7086
:100654007B685B685A1C7B689B689A4203D07B6802
:100664005B68013300E000237A6853607868FFF721
:1006740069FF0346FB607B681B69FA689A4202D2F1
:100684007B68FA681A61012318461037BD4680BD9D
:1006940080B582B000AF786039607868FFF7B0FF4A
:1006A4000346002B01D0002316E07B68DA687B68E0
:1006B4001B6813441A783B681A707B681B685A1CC1
:1006C4007B689B689A4203D07B681B68013300E017
:1006D40000237A681360012318460837BD4680BD9D
:1006E40080B400AF044BDB681B0A03F00703184611
:1006F400BD465DF8047B704700ED00E080B483B034
:1007040000AF0346FB80B7F90630002B0BDBFB88F8
:1007140003F01F020749B7F906305B09012000FA0C
:1007240002F241F8232000BF0C37BD465DF8047B7C
:10073400704700BF00E100E080B483B000AF03461F
:100744003960FB80B7F90630002B0ADB3B68DAB26C
:100754000C49B7F906301201D2B20B4483F80023D6
:100764000AE03B68DAB20849FB8803F00F03043B54
:100774001201D2B20B441A7600BF0C37BD465DF8A5
:10078400047B704700E100E000ED00E080B489B034
:1007940000AFF860B9607A60FB6803F00703FB619F
:1007A400FB69C3F10703042B28BF0423BB61FB6966
:1007B4000433062B02D9FB69033B00E000237B6171
:1007C4004FF0FF32BB6902FA03F3DA43BB681A4005
:1007D4007B699A404FF0FF317B6901FA03F3D943F7
:1007E4007B680B40134318462437BD465DF8047BF1
:1007F4007047000080B582B000AF204B1B68DB69F6
:1008040003F00803002B0ED01C4B1B6808221A624D
:1008140009E01A4B1B685B6ADBB2FB71FB79194672
:100824001748FFF700FF154B1B68DB6903F0200333
:10083400002BEED1114B1B68DB6903F08003002B06
:1008440017D0FB1D19460F48FFF722FF0346002B64
:1008540004D0FA79094B1B689A620AE0074B1B68BB
:100864001A68064B1B6822F080021A60064B0022AD
:100874001A6000BF0837BD4680BD00BF08000020D5
:1008840090020020A4020020B802002080B584B0A9
:1008940000AF78604A4B1B68002B02D14FF0FF3346
:1008A4008AE07B68632B03D97B68B3F5E13F02D907
:1008B4006FF0010380E0424B00221A60402241495C
:1008C4004148FFF768FE802240494148FFF763FE34
:1008D400404BD3F8D8303F4A23F03803C2F8D8301D
:1008E4003C4BD3F89C303B4A43F40033C2F89C3071
:1008F400384BD3F89C3003F40033FB60354BD3F80A
:100904008C30344A43F00103C2F88C30314BD3F8B5
:100914008C3003F00103FB602F4B1B6823F0F003C2
:100924002D4A43F0A00313602B4B1B6A23F47F432F
:10093400294A43F4EE431362284B1B68274A23F0E9
:1009440001031360254B1B68244A43F00C03136016
:10095400224B40F21B62DA60204B5B681F4A23F48F
:10096400904353601D4B9B681C4A23F02A039360F9
:100974001A4B1B68194A43F001031360184B1B6898
:100984001A68174B1B6842F020021A60FFF7A8FE92
:100994000346FB60FB68002200211846FFF7F6FEC1
:1009A400034619463B20FFF7C7FE3B20FFF7A6FE90
:1009B4000C4B00221A60012318461037BD4680BD37
:1009C4000C000020D0010020900200201002002022
:1009D400A4020020000C0244000002420044004033
:1009E40008000020B802002080B582B000AF0346A2
:1009F400FB7100BFFB7919460C48FFF714FE034650
:100A0400002BF7D00A4B1B68002B0AD1084B01229C
:100A14001A60084B1B681A68064B1B6842F0800278
:100A24001A6000BF0837BD4680BD00BFA402002085
:100A3400B80200200800002080B582B000AF7860C2
:100A440079680648FFF724FE0346002B01DD0123E5
:100A540000E0002318460837BD4680BD9002002000
:100A640080B400AF044BDB681B0A03F0070318468D
:100A7400BD465DF8047B704700ED00E080B483B0B0
:100A840000AF03463960FB80B7F90630002B0ADB60
:100A94003B68DAB20C49B7F906301201D2B20B4402
:100AA40083F800230AE03B68DAB20849FB8803F0C4
:100AB4000F03043B1201D2B20B441A7600BF0C3769
:100AC400BD465DF8047B704700E100E000ED00E006
:100AD40080B489B000AFF860B9607A60FB6803F055
:100AE4000703FB61FB69C3F10703042B28BF04233D
:100AF400BB61FB690433062B02D9FB69033B00E0AD
:100B040000237B614FF0FF32BB6902FA03F3DA433F
:100B1400BB681A407B699A404FF0FF317B6901FA48
:100B240003F3D9437B680B40134318462437BD466F
:100B34005DF8047B7047000080B483B000AF114BB4
:100B4400D3F88C300F4A43F00403C2F88C300D4BB9
:100B5400D3F88C3003F004037B600B4BDB6823F089
:100B64004063094A43F00063D360074B1B68064A9D
:100B740023F0406313607B6800BF0C37BD465DF80B
:100B8400047B7047000C02440008024280B483B026
:100B940000AF104BD3F88C300E4A43F00103C2F877
:100BA4008C300C4BD3F88C3003F001037B607B68F2
:100BB400094B1B6823F44063074A43F480631360C2
:100BC400054B20229A6200BF0C37BD465DF8047BBA
:100BD400704700BF000C02440000024280B483B09E
:100BE40000AF0346FB71FB79002B03D0064B202298
:100BF4009A6102E0044B20229A6200BF0C37BD4682
:100C04005DF8047B704700BF0000024280B500AF6E
:100C140000F02AFB054B1B68044A23F0040313600D
:100C2400FFF7B4FFFFF788FF00BF80BD0004034057
:100C340080B483B000AF7860396000BFFDE7000086
:100C440080B489B000AF8C4BDB6903F01803082B28
:100C540002D18A4BFB6107E1874BDB6903F0180380
:100C6400002B12D1844B1B6803F02003002B09D006
:100C7400814B1B68DB0803F00303814A22FA03F368
:100C8400FB61F1E07E4BFB61EEE07B4BDB6903F043
:100C94001803102B02D17B4BFB61E5E0764BDB693B
:100CA40003F01803182B40F0DD80734B9B6A03F0AC
:100CB40003037B61704B9B6A1B0A03F03F033B6198
:100CC4006D4B9B6A1B0903F00103FB606A4B9B6B32
:100CD400DB08C3F30C03FA6802FB03F307EE903A54
:100CE400F8EE677AC7ED027A3B69002B00F0B78013
:100CF4007B69012B03D07B69032B56D077E05E4BD5
:100D04001B6803F02003002B2DD05B4B1B68DB0812
:100D140003F003035A4A22FA03F37B607B6807EE6D
:100D2400903AF8EE676A3B6907EE903AF8EE677A14
:100D340086EEA77A504B5B6BC3F3080307EE903A39
:100D4400F8EE676A97ED026ADFED4F5AC6EE257A30
:100D540076EEA77AF7EE006A77EEA67A67EE277A40
:100D6400C7ED067A65E03B6907EE903AF8EE677ADC
:100D7400DFED466A86EEA77A3F4B5B6BC3F308034D
:100D840007EE903AF8EE676A97ED026ADFED3E5A95
:100D9400C6EE257A76EEA77AF7EE006A77EEA67AA3
:100DA40067EE277AC7ED067A43E03B6907EE903A8F
:100DB400F8EE677ADFED366A86EEA77A2E4B5B6B28
:100DC400C3F3080307EE903AF8EE676A97ED026AF8
:100DD400DFED2D5AC6EE257A76EEA77AF7EE006A95
:100DE40077EEA67A67EE277AC7ED067A21E03B69AB
:100DF40007EE903AF8EE677ADFED266A86EEA77A78
:100E04001D4B5B6BC3F3080307EE903AF8EE676A79
:100E140097ED026ADFED1C5AC6EE257A76EEA77AC4
:100E2400F7EE006A77EEA67A67EE277AC7ED067AC0
:100E340000BF114B5B6B5B0A03F07F0301333B6024
:100E44003B6807EE903AB8EE677AD7ED066AC6EECD
:100E5400877AFCEEE77A17EE903AFB6104E0002310
:100E6400FB6101E0064BFB61FB6918462437BD4674
:100E74005DF8047B704700BF000C024400093D008C
:100E84000090D00340787D01000000460024744C9B
:100E940020BCBE4B0024744A80B483B000AF174B0F
:100EA4001B6803F00403002B02D004237B601EE0C4
:100EB400134BD3F8E43003F00C033B603B68082B7E
:100EC4000FD03B68082B0FD83B68002B03D03B683E
:100ED400042B03D008E000237B6008E001237B603F
:100EE40005E002237B6002E000237B6000BF7B6897
:100EF40018460C37BD465DF8047B704710E000E0EF
:100F0400000C024480B483B000AF78607B68013B7E
:100F1400B3F1807F01D301230DE00A4A7B68013BD2
:100F24005360084B00229A60064B1B68054A43F045
:100F340003031360002318460C37BD465DF8047B99
:100F4400704700BF10E000E080B586B000AF0346F4
:100F5400B9607A60FB81FFF783FD78617A68B968CC
:100F64007869FFF7B5FD0246B7F90E301146184609
:100F7400FFF784FD00BF1837BD4680BD80B584B03F
:100F840000AF78600023FB60334B1B68002B01D15A
:100F940001235CE0314B1B6803F00403042B0CD1E8
:100FA4002F4B1A682C4B1B6819464FF47A73B3FB0A
:100FB400F1F3B2FBF3F3FB6037E0FFF76DFFB860CA
:100FC400BB68022B23D0BB68022B2DD8BB68002B37
:100FD40003D0BB68012B0DD026E0214B1A681E4BB1
:100FE4001B6819464FF4FA53B3FBF1F3B2FBF3F366
:100FF400FB601AE0184B1B681A464FF47A73B3FB74
:10100400F2F34FF4FA42B2FBF3F3FB600DE0124B40
:101014001B681A464FF47A73B3FBF2F34FF40042A1
:10102400B2FBF3F3FB6000E000BFF868FFF76AFF70
:101034000346002B01D0012309E0002279684FF018
:10104400FF30FFF781FF074A7B68136000231846CF
:101054001037BD4680BD00BF1400002010E000E042
:10106400040000201000002080B584B000AF786038
:101074003960364B1B6803F00F033A689A4210D963
:10108400324B1B6823F00F0230493B6813430B605B
:101094002E4B1B6803F00F033A689A4201D00123D8
:1010A40050E07B681B6803F00203002B10D07B68C0
:1010B4009A68274B1B6A03F00F039A4208D9244B02
:1010C4001B6A23F00F027B689B68214913430B6260
:1010D4007B681B6803F00103002B1FD07B685B68EF
:1010E400032B07D11A4B1B6803F00073002B01D1AB
:1010F400012327E0164BDB6923F003027B685B685E
:1011040013491343CB617B685B68032B06D100BF93
:101114000F4BDB6903F01803182BF9D1FFF790FD8F
:1011240002460B4B1B6A03F00F030A49CB5C22FAFD
:1011340003F3094A1360094B1B681846FFF71EFFA7
:10114400F860FB6818461037BD4680BD0020024099
:10115400000C0244D01B00080400002010000020F2
:1011640080B485B000AF78603E4BDB6903F01803B0
:10117400FB603C4B1B683B4A43F4807313607B6801
:101184009B6A002B66D0FB68182B63D07B689B6A34
:10119400022B5FD1334B9B6A23F47C5323F003036C
:1011A4007A68D16A7A68126B12020A432D49134392
:1011B4008B627B685B6B013BC3F308027B689B6BB0
:1011C400013B5B029BB21A437B68DB6B013B1B0454
:1011D40003F4FE031A437B681B6C013B1B0603F0FC
:1011E400FE43204913434B631E4B9B6A1D4A23F065
:1011F400100393627B68DB6C1A4ADB009363194B20
:101204009B6A184A43F010039362164B9B6A23F0BF
:101214000C027B685B6C134913438B62114B9B6A12
:1012240023F020027B689B6C0E4913438B620D4BA9
:101234009B6A0C4A43F4803393620A4B1B68094A45
:1012440043F08073136000BF064B1B6803F0007308
:10125400002BF9D0002318461437BD465DF8047BF3
:10126400704700BF000C024480B59AB000AF07F18C
:101274001803502200211846FFF712F83B460022BB
:101284001A605A609A60DA601A615A612B4B1B69C2
:101294002A4A43F03003136100BF284B5B6903F013
:1012A4000803002BF9D01023BB614FF480737B63D8
:1012B4002023BB6302233B6402237B640123BB64BE
:1012C4007823FB6402233B6502237B650223BB6511
:1012D4000823FB6500233B6600237B6607F11803A4
:1012E4001846FFF73DFF0346002B03D001210120E0
:1012F400FFF79EFC1F233B6003237B600B23BB6033
:101304000023FB6000233B6100237B613B460521F6
:101314001846FFF7A9FE0346002B03D00221012043
:10132400FFF786FC064B1B6823F03003044A43F0A6
:101334002003136000BF6837BD4680BD0008024427
:101344000020024080B483B000AF78607B68092B32
:1013540004DC7B68DBB23033DBB203E07B68DBB2F6
:101364005733DBB218460C37BD465DF8047B704733
:1013740090B583B000AF03463960FB71FB791B095C
:10138400DBB21A463C68631C3B601046FFF7DAFF89
:1013940003462370FB7903F00F023C68631C3B6037
:1013A4001046FFF7CFFF0346237000BF0C37BD463E
:1013B40090BD80B584B000AFF860B9607A60FB6816
:1013C400002B13D006E0FB685A1CFA601B78184601
:1013D400FFF70AFBFB681B78002BF4D106E0BB681F
:1013E4005A1CBA601B781846FFF7FEFABB681B78D4
:1013F400002BF4D17B68002B02D00A20FFF7F4FA0B
:1014040000BF1037BD4680BD80B487B000AFF86020
:10141400B9607A6000237B6101233B6127E0FB68AC
:101424001B782F2B03D9FB681B78392B07D9FB6852
:101434001B78602B19D9FB681B78662B15D87B6940
:101444001B01FA681278392A03D8FA681278303AFC
:1014540002E0FA681278573A13447B617B68013BD7
:101464007B60FB680133FB6001E000233B617B6828
:10147400002B02D03B69002BD1D13B69002B04D057
:10148400BB687A691A60012300E0002318461C3700
:10149400BD465DF8047B704780B487B000AFF86048
:1014A400B9607A6000237B6101233B611BE0FB6828
:1014B4001B782F2B15D9FB681B78392B11D87A6927
:1014C40013469B0013445B001A46FB681B781344C5
:1014D400303B7B617B68013B7B60FB680133FB60D5
:1014E40001E000233B617B68002B02D03B69002BA9
:1014F400DDD13B69002B04D0BB687A691A600123F3
:1015040000E0002318461C37BD465DF8047B704795
:1015140080B582B000AF084B7B60084B1B7830333A
:10152400DBB2BB713B1D012219460020FFF741FFCE
:1015340000BF0837BD4680BD64532000C4020020AC
:1015440080B582B000AF78603960024800F0AAFA32
:1015540000BFFDE75C1B000880B584B000AF786075
:1015640039603B68002B01DC042334E07B681B7882
:10157400FB737B6801337B603B68013B3B60FB7B17
:10158400302B10D0532B1CD13B68002B01D00423EB
:1015940021E053233B72124B1B783033DBB27B7256
:1015A4000023BB720FE030233B720E4B1A7807F115
:1015B4000803013319461046FFF7DAFE0023FB72D5
:1015C40001E0032307E007F1080301221946064856
:1015D400FFF7EFFE002318461037BD4680BD00BF5D
:1015E400C4020020BF020020881B000880B586B01A
:1015F40000AF786039607B681B78FB757B680133CA
:101604007B603B68013B3B60FB7D313B012B1ED87B
:101614003B68022B01D004233EE007F108030222B9
:1016240019467868FFF7F0FE38613B69002B0CD04F
:10163400FB7D312B04D1BB68DAB2194B1A702AE056
:10164400BB68DAB2174B1A7025E0052324E0FB7D52
:10165400602B1ED9FB7D622B1BD83B68042B01D069
:10166400042319E0FB7D613BFB7307F108030422AB
:1016740019467868FFF7C8FE38613B69002B06D02D
:10168400BA68FB7B91B2084A22F8131003E00523E1
:1016940002E0032300E0002318461837BD4680BD4E
:1016A400BD020020BE020020C002002080B588B028
:1016B40000AF0346B9607A60FB73FB7B542B03D005
:1016C400562B00F0B080ACE07B680E2B01D00423D5
:1016D400ABE007F11C0304221946B868FFF7DCFEEF
:1016E4000346002B01D105239FE0FB69B3F5FA6F94
:1016F40004D3FB6940F6B832934201D9062394E03F
:10170400FB699BB2BB82BB680433BB6007F11C035B
:1017140002221946B868FFF7BFFE0346002B01D129
:10172400052382E0FB69002B02D0FB690C2B01D955
:1017340006237AE0FB69DBB2BB75BB680233BB608E
:1017440007F11C0302221946B868FFF7A5FE0346F9
:10175400002B01D1052368E0FB69002B02D0FB6953
:101764001F2B01D9062360E0FB69DBB2FB75BB6864
:101774000233BB6007F11C0302221946B868FFF765
:101784008BFE0346002B01D105234EE0FB69002BA1
:1017940002D0FB69172B01D9062346E0FB69DBB2B3
:1017A4003B76BB680233BB6007F11C030222194677
:1017B400B868FFF771FE0346002B01D1052334E01E
:1017C400FB69002B02D0FB693C2B01D906232CE0DA
:1017D400FB69DBB27B76BB680233BB6007F11C0399
:1017E40002221946B868FFF757FE0346002B01D1C1
:1017F40005231AE0FB69002B02D0FB693C2B01D9BD
:10180400062312E0FB69DBB2BB76BB680233BB6024
:10181400084B1A4607F1140393E8030082E8030017
:1018240002E0032301E000BF002318462037BD4631
:1018340080BD00BFC802002080B584B000AF7860CE
:1018440039600023FB733B68002B02DC0423FB7329
:1018540023E07B681B78BB737B6801337B603B6848
:10186400013B3B60BB7B2F2B0FD9BB7B392B0CD8A7
:10187400BB7B302B06D139687868FFF7B7FE034687
:10188400FB730AE00223FB7307E0BB7B3A687968C9
:101894001846FFF70BFF0346FB73FB7B1846103714
:1018A400BD4680BD80B586B000AF78600023FB756F
:1018B4007B681B78BB757B683B617868FEF7E8FC46
:1018C4000346FB60BB7D642B0AD17B685A1CFB6812
:1018D400013B19461046FFF7AFFF0346FB751CE0BA
:1018E400BB7D3F2B0AD17B685A1CFB68013B194620
:1018F4001046FFF731FE0346FB750EE0BB7D652BFA
:1019040008D17B685A1CFB68013B19461046FFF757
:1019140017FE02E00D4800F0C5F8FB7D002B10D047
:101924000B4BBB6007F108030133FA7D19461046DF
:10193400FFF71EFD07F10803012239691846FFF776
:1019440038FD00BF1837BD4680BD00BF8C1B0008A2
:101954006578780080B500AFFFF758F94FF416505A
:10196400FEF794FF002000F00FF800220449002045
:10197400FFF71FFD034B01221A7000BF80BD00BF9B
:10198400981B0008BC02002080B582B000AF03465B
:10199400FB710B4B1B78FA799A4201D100230BE0BF
:1019A400FB79092B02D94FF0FF3305E0044AFB7998
:1019B4001370FFF7ADFD012318460837BD4680BDFF
:1019C400C402002080B582B000AF0C4A3B1D1268EF
:1019D400114619800233120C1A70094B1B783A1DF8
:1019E40011461846FFF7C4FC3B1D01221946054861
:1019F400FFF7DFFC00BF0837BD4680BDC41B0008ED
:101A0400BF020020C01B000880B582B000AF0346AF
:101A1400FB71084B1B78FA799A4201D1012305E046
:101A2400044AFB791370FFF7CDFF012318460837EA
:101A3400BD4680BDBF02002080B582B000AFFB1D53
:101A44001846FEF7F9FF0346002B22D0FB790A2B38
:101A540002D0FB790D2B0BD1104B1B68104A0021CF
:101A6400D1540E4B00221A600D48FFF71BFF10E003
:101A74000A4B1B685A1C09490A60F979084AD1546F
:101A8400064B1B68202B04D1044B1B68044A00211D
:101A9400D15400BF0837BD4680BD00BFD00200202E
:101AA400D402002080B582B000AF7860074B1B7869
:101AB400002B01D1002305E0012279680448FFF7D7
:101AC40078FC012318460837BD4680BDBC020020BF
:101AD400C81B00080D488546FEF7B8FC0C480D49A4
:101AE4000D4A002302E0D458C4500433C4188C4275
:101AF400F9D30A4A0A4C002301E013600432A242DB
:101B0400FBD3FEF7D5FBFEF75FFCFEE700400420A5
:101B14000000002018000020F41B0008180000201A
:101B2400F8020020FEE70000F8B500BFF8BC08BCCE
:101B34009E467047F8B500BFF8BC08BC9E46704787
:101B440031207365636F6E64206D6F726520656C00
:101B540061707365640000004572726F7220726573
:101B64006365697665642C20676F696E6720696EAA
:101B7400746F20696E66696E697465206C6F6F702E
:101B84000000000064000000556E6B6E6F776E20DD
:101B9400504455006453300A3F540A6430303030A6
:101BA4000A3F30310A3F30320A3F30610A3F306227
:101BB4000A00000064310000643200006430300028
:101BC40078780000644C00006444000000000000C9
:0C1BD400000000000102030406070809DD
:081BE000B4E6FF7F01000000E4
:081BE800010300087902000866
:041BF0005502000892
:101BF400340000200090D0030044004001000000A5
:081C04001000000001000000C7
:0400000508001AD9FC
:00000001FF
